{
    "_format": "hh-sol-artifact-1",
    "contractName": "counter",
    "sourceName": "contracts/demo.sol",
    "abi": [
        {
            "inputs": [],
            "stateMutability": "nonpayable",
            "type": "constructor"
        },
        {
            "anonymous": false,
            "inputs": [
                {
                    "indexed": false,
                    "internalType": "string",
                    "name": "",
                    "type": "string"
                },
                {
                    "indexed": false,
                    "internalType": "uint256",
                    "name": "",
                    "type": "uint256"
                }
            ],
            "name": "countUpdated",
            "type": "event"
        },
        {
            "anonymous": false,
            "inputs": [
                {
                    "indexed": false,
                    "internalType": "address",
                    "name": "",
                    "type": "address"
                },
                {
                    "indexed": false,
                    "internalType": "uint256",
                    "name": "",
                    "type": "uint256"
                }
            ],
            "name": "transferCalled",
            "type": "event"
        },
        {
            "inputs": [],
            "name": "contractBalance",
            "outputs": [
                {
                    "internalType": "uint256",
                    "name": "",
                    "type": "uint256"
                }
            ],
            "stateMutability": "view",
            "type": "function"
        },
        {
            "inputs": [],
            "name": "count",
            "outputs": [
                {
                    "internalType": "uint256",
                    "name": "",
                    "type": "uint256"
                }
            ],
            "stateMutability": "view",
            "type": "function"
        },
        {
            "inputs": [],
            "name": "decrementcount",
            "outputs": [
                {
                    "internalType": "uint256",
                    "name": "",
                    "type": "uint256"
                }
            ],
            "stateMutability": "nonpayable",
            "type": "function"
        },
        {
            "inputs": [],
            "name": "deposit",
            "outputs": [],
            "stateMutability": "payable",
            "type": "function"
        },
        {
            "inputs": [],
            "name": "incrementcount",
            "outputs": [
                {
                    "internalType": "uint256",
                    "name": "",
                    "type": "uint256"
                }
            ],
            "stateMutability": "nonpayable",
            "type": "function"
        },
        {
            "inputs": [],
            "name": "name",
            "outputs": [
                {
                    "internalType": "string",
                    "name": "",
                    "type": "string"
                }
            ],
            "stateMutability": "view",
            "type": "function"
        },
        {
            "inputs": [
                {
                    "internalType": "uint256",
                    "name": "_count",
                    "type": "uint256"
                }
            ],
            "name": "setcount",
            "outputs": [],
            "stateMutability": "nonpayable",
            "type": "function"
        },
        {
            "inputs": [
                {
                    "internalType": "address payable",
                    "name": "_to",
                    "type": "address"
                }
            ],
            "name": "transfer",
            "outputs": [],
            "stateMutability": "payable",
            "type": "function"
        }
    ],
    "bytecode": "0x60806040523480156200001157600080fd5b50609c6000819055506040518060400160405280600881526020017f7361696b6972616e00000000000000000000000000000000000000000000000081525060019081620000609190620002e1565b50620003c8565b600081519050919050565b7f4e487b7100000000000000000000000000000000000000000000000000000000600052604160045260246000fd5b7f4e487b7100000000000000000000000000000000000000000000000000000000600052602260045260246000fd5b60006002820490506001821680620000e957607f821691505b602082108103620000ff57620000fe620000a1565b5b50919050565b60008190508160005260206000209050919050565b60006020601f8301049050919050565b600082821b905092915050565b600060088302620001697fffffffffffffffffffffffffffffffffffffffffffffffffffffffffffffffff826200012a565b6200017586836200012a565b95508019841693508086168417925050509392505050565b6000819050919050565b6000819050919050565b6000620001c2620001bc620001b6846200018d565b62000197565b6200018d565b9050919050565b6000819050919050565b620001de83620001a1565b620001f6620001ed82620001c9565b84845462000137565b825550505050565b600090565b6200020d620001fe565b6200021a818484620001d3565b505050565b5b8181101562000242576200023660008262000203565b60018101905062000220565b5050565b601f82111562000291576200025b8162000105565b62000266846200011a565b8101602085101562000276578190505b6200028e62000285856200011a565b8301826200021f565b50505b505050565b600082821c905092915050565b6000620002b66000198460080262000296565b1980831691505092915050565b6000620002d18383620002a3565b9150826002028217905092915050565b620002ec8262000067565b67ffffffffffffffff81111562000308576200030762000072565b5b620003148254620000d0565b6200032182828562000246565b600060209050601f83116001811462000359576000841562000344578287015190505b620003508582620002c3565b865550620003c0565b601f198416620003698662000105565b60005b8281101562000393578489015182556001820191506020850194506020810190506200036c565b86831015620003b35784890151620003af601f891682620002a3565b8355505b6001600288020188555050505b505050505050565b61075180620003d86000396000f3fe60806040526004361061007b5760003560e01c8063a097a4921161004e578063a097a4921461011d578063a15ec53114610148578063d0e30db014610173578063f6ad6b0a1461017d5761007b565b806306661abd1461008057806306fdde03146100ab5780631a695230146100d65780638b7afe2e146100f2575b600080fd5b34801561008c57600080fd5b506100956101a6565b6040516100a29190610363565b60405180910390f35b3480156100b757600080fd5b506100c06101ac565b6040516100cd919061040e565b60405180910390f35b6100f060048036038101906100eb9190610493565b61023a565b005b3480156100fe57600080fd5b506101076102bd565b6040516101149190610363565b60405180910390f35b34801561012957600080fd5b506101326102c5565b60405161013f9190610363565b60405180910390f35b34801561015457600080fd5b5061015d6102e6565b60405161016a9190610363565b60405180910390f35b61017b610307565b005b34801561018957600080fd5b506101a4600480360381019061019f91906104ec565b610309565b005b60005481565b600180546101b990610548565b80601f01602080910402602001604051908101604052809291908181526020018280546101e590610548565b80156102325780601f1061020757610100808354040283529160200191610232565b820191906000526020600020905b81548152906001019060200180831161021557829003601f168201915b505050505081565b8073ffffffffffffffffffffffffffffffffffffffff166108fc349081150290604051600060405180830381858888f19350505050158015610280573d6000803e3d6000fd5b507f90b91c1b7916ddc437ab46f887dc83a96828c354a6b92cfae5f89725379bff9481346040516102b29291906105d8565b60405180910390a150565b600047905090565b60008060008154809291906102d990610630565b9190505550600054905090565b60008060008154809291906102fa90610659565b9190505550600054905090565b565b806000819055507f934a8dfd9a342e19b7053ab93d7b52ac798168ab754cc6dbbe0c1d41172ba65c8160405161033f91906106ed565b60405180910390a150565b6000819050919050565b61035d8161034a565b82525050565b60006020820190506103786000830184610354565b92915050565b600081519050919050565b600082825260208201905092915050565b60005b838110156103b857808201518184015260208101905061039d565b60008484015250505050565b6000601f19601f8301169050919050565b60006103e08261037e565b6103ea8185610389565b93506103fa81856020860161039a565b610403816103c4565b840191505092915050565b6000602082019050818103600083015261042881846103d5565b905092915050565b600080fd5b600073ffffffffffffffffffffffffffffffffffffffff82169050919050565b600061046082610435565b9050919050565b61047081610455565b811461047b57600080fd5b50565b60008135905061048d81610467565b92915050565b6000602082840312156104a9576104a8610430565b5b60006104b78482850161047e565b91505092915050565b6104c98161034a565b81146104d457600080fd5b50565b6000813590506104e6816104c0565b92915050565b60006020828403121561050257610501610430565b5b6000610510848285016104d7565b91505092915050565b7f4e487b7100000000000000000000000000000000000000000000000000000000600052602260045260246000fd5b6000600282049050600182168061056057607f821691505b60208210810361057357610572610519565b5b50919050565b6000819050919050565b600061059e61059961059484610435565b610579565b610435565b9050919050565b60006105b082610583565b9050919050565b60006105c2826105a5565b9050919050565b6105d2816105b7565b82525050565b60006040820190506105ed60008301856105c9565b6105fa6020830184610354565b9392505050565b7f4e487b7100000000000000000000000000000000000000000000000000000000600052601160045260246000fd5b600061063b8261034a565b91506000820361064e5761064d610601565b5b600182039050919050565b60006106648261034a565b91507fffffffffffffffffffffffffffffffffffffffffffffffffffffffffffffffff820361069657610695610601565b5b600182019050919050565b7f436f756e74207570646174656420746f20000000000000000000000000000000600082015250565b60006106d7601183610389565b91506106e2826106a1565b602082019050919050565b60006040820190508181036000830152610706816106ca565b90506107156020830184610354565b9291505056fea26469706673582212207aa645f923806888a72f51180cfd1ac81aea04c04f49ac68e3d2015c68c396f764736f6c63430008120033",
    "linkReferences": {},
    "deployedLinkReferences": {}
}